:020000040800F2
:10000000C05F00201D150008CD030008271500085B
:10001000CF030008D3030008D70300080000000046
:10002000000000000000000000000000390200088D
:10003000DB030008000000008D020008893400087E
:100040003715000837150008371500083715000860
:100050003715000837150008371500083715000850
:100060003715000837150008371500083715000840
:100070003715000837150008371500083715000830
:100080003715000837150008371500083715000820
:100090003715000837150008371500083715000810
:1000A0003715000837150008371500083715000800
:1000B000050400080D0400081504000837150008A1
:1000C00037150008371500083715000837150008E0
:1000D00037150008DD030008E5030008ED030008FC
:1000E00037150008371500083715000837150008C0
:1000F00037150008371500083715000837150008B0
:1001000037150008371500081D04000837150008CA
:10011000F5030008FD03000837150008371500082F
:10012000371500083715000837150008371500087F
:10013000371500083715000837150008371500086F
:10014000371500083715000837150008371500085F
:10015000371500083715000837150008371500084F
:10016000371500083715000837150008371500083F
:10017000371500083715000837150008371500082F
:10018000371500083715000800F002F800F044F8B1
:100190000AA090E8000C82448344AAF10107DA45E2
:1001A00001D100F039F8AFF2090EBAE80F0013F0F0
:1001B000010F18BFFB1A43F0010318471C6F000022
:1001C0003C6F0000103A24BF78C878C1FAD85207B3
:1001D00024BF30C830C144BF04680C6070470000C1
:1001E0000023002400250026103A28BF78C1FBD840
:1001F000520728BF30C148BF0B607047752906F011
:100200009D81632906F0B983002070471FB506F071
:1002100050FF1FBD10B510BD06F020FC1146FFF7C2
:10022000F5FF00F098F806F03EFC03B4FFF7F2FF8C
:1002300003BC03F0BDF900002A4B19680868B0E858
:10024000F04F80F30988BFF36F8F4FF0000080F309
:10025000118870470000000006480068006880F3BD
:10026000088862B661B6BFF34F8FBFF36F8F00DFB0
:1002700000BF00BF08ED00E0DFF80C00016841F4AA
:1002800070010160704700BF88ED00E0EFF3098066
:10029000BFF36F8F134B1A681EF0100F08BF20EDCD
:1002A000108A20E9F04F106008B44FF0500080F33E
:1002B0001188BFF34F8FBFF36F8F04F085FE4FF0AF
:1002C000000080F3118808BC19680868B0E8F04F96
:1002D0001EF0100F08BFB0EC108A80F30988BFF33E
:1002E0006F8F704750000020EFF3058070470000CB
:1002F0001CB5044605F0A5FF204802210023642216
:10030000CDE900101EA1204804F063FB1F48022124
:1003100000236422CDE900101DA11F4804F059FB01
:100320001E48022100236422CDE900101CA11E48B2
:1003300004F04FFB1D48022100236422CDE9001088
:100340001BA11D4804F045FB1C48006804F08FFB0E
:1003500005F086FF1CBD1CB500F06CF917480121A3
:1003600000238022CDE9001015A1AFF27B0004F03C
:1003700030FB04F08CFF00201CBD000004000020B6
:1003800074657374310000008706000808000020BF
:100390007465737432000000A90600080C00002088
:1003A0007465737433000000C50600081000002057
:1003B0007465737434000000E70600080000002034
:1003C00073746172745F7461736B0000704700BF77
:1003D000FEE700BFFEE700BFFEE7704710B503F081
:1003E00046F910BD10B503F014FA10BD10B503F0B6
:1003F00000FB10BD10B503F0C0FB10BD10B503F03D
:1004000086FC10BD10B500F0E9FF10BD10B500F07E
:1004100087FF10BD10B501F017F810BD10B501F041
:1004200049F810BD0CB50020019000907648006896
:1004300040F480307449086000BF7348006800F4DD
:10044000003000900198401C0190009818B9019864
:10045000B0F5A04FF1D16C48006800F4003010B145
:100460000120009001E0002000900098012846D172
:1004700065484030006840F0805063494031086072
:100480006248006840F44040604908605E480830B7
:1004900000685D49083108600846006840F4004083
:1004A00008600846006840F4A05008605848091FDA
:1004B0000860081F006840F08070091F086000BFD6
:1004C0005148006800F000700028F9D040F2057033
:1004D000504908604C480830006820F003004A4941
:1004E000083108600846006840F00200086000BF5C
:1004F00045480830006800F00C000828F8D10CBD11
:1005000010B54548006840F47000434908603E4813
:10051000006840F001003C49086000203A49083179
:100520000860394800683D490840374908603C4840
:10053000091D0860081F006820F48020091F08605A
:10054000002031490C310860FFF76CFF4FF000606C
:1005500031498039086010BD70B5002000220223A7
:1005600000240221284D08352D6805F00C0020B12B
:10057000042806D0082834D107E02A4D2A4E3560D9
:1005800033E02A4D284E35602FE01F4D2D1D2D687C
:10059000C5F380541C4D2D1D2D6805F03F0154B14D
:1005A000224DB5FBF1F5184E361D3668C6F3881698
:1005B00005FB06F209E01B4DB5FBF1F5124E361DA9
:1005C0003668C6F3881605FB06F20F4D2D1D2D6803
:1005D000C5F301456D1C6B00B2FBF3F5124E35609F
:1005E00003E0104D104E356000BF00BF064D0835CA
:1005F0002D68C5F303150E4E705D0B4D2D68C5407B
:10060000094E356070BD00000038024000700040A7
:1006100008544007003C024088ED00E0FFFFF6FE72
:10062000103000240024F4001400002000127A008E
:100630001800002010B502F040FF4FF4A06000F059
:100640008DFF00F063FB00F0B5FB00F09DFB00F0B8
:1006500078FB4FF4E13002F0B8FF002000F08EFA92
:10066000012000F08BFA022000F088FA032000F04D
:1006700085FA00F05DFA012242F2CF0141F28730A3
:1006800000F037FC10BD02F00DFF0CE04FF47A7063
:1006900004F0BDFB1A480068C0431A49C1F8900233
:1006A00019A005F001FFF1E702F0FCFE09E04FF4AC
:1006B000FA7004F0ACFB19480068C0431849C1F84F
:1006C0009402F4E70EE041F2883004F0A0FB012030
:1006D0000B492C310860322004F099FB00200949B5
:1006E000C1F8BC02EFE709E04FF47A7004F08FFB29
:1006F0000C480068C0430C49C1F88002F4E70000D0
:1007000090024042000040426920616D20765461B1
:10071000736B4C65645F470D0A0000009402414210
:1007200000004142808240420080404270B5054650
:100730000E4600240CE0295D364802F095FD00BF0E
:100740004021344802F040FE0128F9D1601CC4B2B7
:10075000B442F0DB70BDF7B5002600270024AA22C2
:100760002146641C2C484254FF222146641C4254FA
:10077000F1222146641C425400222146641C42544A
:100780009DF800202146641C42549DF8012021461A
:10079000641C42549DF804202146641C42549DF878
:1007A00005202146601CC4B21B4842549DF8082015
:1007B0002046611CCCB218490A549DF809202046F5
:1007C000611CCCB214490A5400222046611CCCB2F0
:1007D00011490A54201FC870002506E00E48405DEC
:1007E0003044C6B2B819C7B26D1C0B48C078001DA2
:1007F000A842F3DC2046611CCCB207490E542046C7
:10080000611CCCB204490F5421460348FFF78EFF08
:10081000FEBD000000100140BC00002000B589B002
:100820000121042001F0A9FC0121082001F05CFC59
:1008300002220C21894801F044FA02220D21874846
:1008400001F03FFA02208DF8200001208DF82200EF
:100850000D20079001208DF8230003208DF8210042
:1008600007A97E4801F0A2F904A801F072FE002059
:10087000ADF81000401E05900020ADF81800ADF84E
:10088000120004A9764801F030FE00231A46012127
:10089000734802F09EFB01A802F035FA0820ADF87B
:1008A0000C0001A96E4802F0F7F901216C4802F032
:1008B000D1FA012211466A4802F0B8FA00206849CC
:1008C000243108600121664801F098FE09B000BD9E
:1008D00010B52DED0A8B62482430006800B208EE96
:1008E000100A00215E4801F049FEB8EEC80A10EE79
:1008F000100A06F06DFB41EC1C0B9FED5A0B53ECFC
:10090000102B06F00FF941EC1B0B9FED580B53EC2D
:10091000102B06F007F941EC1A0B9FED560B53EC28
:10092000102B06F057FA41EC190B06F0C9F808EE47
:10093000900AB0EE680ABDEC0A8B10BD00B589B014
:100940000121082001F019FC0121084601F0CCFB2F
:1009500002220021494801F0B4F90222012147484E
:1009600001F0AFF902208DF8200001208DF822005F
:100970000320079001208DF8230003208DF821002B
:1009800007A93E4801F012F904A801F0E2FD002099
:10099000ADF81000401E05900020ADF81800ADF82D
:1009A000120004A9364801F0A0FD00231A460121D7
:1009B000334802F00EFB01A802F0A5F90820ADF8BB
:1009C0000C0001A92E4802F067F901212C4802F021
:1009D00041FA012211462A4802F028FA002028494B
:1009E000243108600121264801F008FE09B000BD4D
:1009F00010B52DED0A8B22482430006800B208EEB5
:100A0000100A00211E4801F0B9FDB8EEC80A10EE28
:100A1000100A06F0DDFA41EC1C0B9FED120B53ECB3
:100A2000102B06F07FF841EC1B0B9FED100B53ECE5
:100A3000102B06F077F841EC1A0B9FED0E0B53ECE0
:100A4000102B06F0C7F941EC190B06F039F808EE47
:100A5000900AB0EE680ABDEC0A8B10BD000C024093
:100A6000000800409A9999999999A93F00000000BF
:100A700000608840000000000080764000000240D6
:100A8000000C00400FB410B50446DDED030A00EE83
:100A9000104AB8EEC00A30EEC00A8DED040A9DED92
:100AA000040ADDED060A30EE600ADDED070A20EEED
:100AB000200ADDED080A9DED041A00EE810ADDED45
:100AC000050A30EE200A8DED050A9DED040A8DED34
:100AD000060ADDED050A9DED0A0AB8EEC00AF4EE3D
:100AE000C00AF1EE10FA05DB9DED0A0AB8EEC00A65
:100AF0008DED050ADDED050A0A98404200EE100A68
:100B0000B8EEC00AF4EEC00AF1EE10FA07D80A985F
:100B1000404200EE100AB8EEC00A8DED050A9DEDC8
:100B2000050ABDEEC00A10EE100A10BC5DF814FBF9
:100B30009FED0E0A0E4880ED010A9FED0C0A80ED34
:100B4000030A9FED0C0A80ED000AB7EE000A80ED63
:100B5000040A9FED090A80ED050A9FED040A80ED65
:100B6000060A4FF47A700249C8617047000000001D
:100B7000F000002000007A449A99993E10B58CB09C
:100B800004460121080201F009FB072C30DC012199
:100B9000084601F0A9FA082C1DD2DFE804F004078A
:100BA0000A0D1013161901200A9015E002200A9070
:100BB00012E004200A900FE008200A900CE01020B8
:100BC0000A9009E020200A9006E040200A9003E005
:100BD00080200A9000E000BF00BF03208DF82C00A9
:100BE00000208DF82F000AA9444800F0DFFF46E0FE
:100BF000082C01D0092C15D10121022001F074FA32
:100C0000082C02D101200A9001E002200A90032062
:100C10008DF82C0000208DF82F000AA9384800F02C
:100C2000C5FF2CE0092C2ADD0121042001F05CFA2B
:100C3000A4F10A00062816D2DFE800F00306090C2A
:100C40000F1201200A900FE002200A900CE004200D
:100C50000A9009E008200A9006E010200A9003E0BC
:100C600020200A9000E000BF00BF03208DF82C0078
:100C700000208DF82F000AA9224800F097FF0121DB
:100C8000080201F0E0FA00214FF4807001F0DBFA75
:100C900000200690099008904FF44030079006A875
:100CA00000F006FD002000908DF8040003908DF800
:100CB00005000290049001208DF814006946124846
:100CC00000F0C7FC0121104800F009FD0CB010BD78
:100CD00010B504460723012221460B4800F03FFDD2
:100CE000094800F098FD00BF0221074800F0B4FE5B
:100CF0000028F9D0044800F0CAFD10BD00000240F1
:100D00000004024000080240002001401CB50121FF
:100D1000084601F0E9F901208DF8040000208DF863
:100D2000060003208DF80500182000906946314820
:100D300000F03CFF0120304908603049C1F89002C2
:100D40001CBD1CB50121062001F0CEF901208DF853
:100D5000040000208DF8060003208DF80500012016
:100D600000906946264800F021FF30200090694637
:100D7000244800F01BFF0120234908602349C1F8E3
:100D80009402234908601CBD1CB50121084601F0EE
:100D9000ABF901208DF8040000208DF806004FF417
:100DA0000040009003208DF805006946114800F0CE
:100DB000FDFE1CBD1CB50121084601F095F900207F
:100DC0008DF804006020009001208DF807000320BA
:100DD0008DF805006946074800F0E8FE1CBD10B517
:100DE000FFF794FFFFF7ADFFFFF7CEFFFFF7E2FF3E
:100DF00010BD0000000002408C0240420000404252
:100E0000000402400008024080824042000041424B
:100E10009002414270B58AB006460C46154607A8B6
:100E200001F097FB02A801F019FD0121084601F02D
:100E3000A4F90121084601F057F90C200090022086
:100E40008DF8040003208DF8050000208DF80600C1
:100E500001208DF807006946FE4800F0A7FE012238
:100E60000221FC4800F02DFF01220321F94800F087
:100E700028FF0896A0B2ADF81C000020ADF82400B1
:100E8000ADF81E0007A94FF0804001F02EFB602056
:100E9000ADF80800012D03D10020ADF8140002E0E8
:100EA0000220ADF814000120ADF80A0000200490E3
:100EB00002A94FF0804001F033FC0821C80601F080
:100EC0004CFD0120ADF80A000020049002A94FF06B
:100ED000804001F08BFC0821C80601F047FD01218C
:100EE000880701F06DFB0121880701F087FB0AB03C
:100EF00070BD70B58AB006460C46154607A801F0CD
:100F000028FB02A801F0AAFC0121022001F035F91A
:100F10000121042001F0E8F84FF4707000900220E5
:100F20008DF8040003208DF8050000208DF80600E0
:100F300001208DF807006946C74800F037FE0222FD
:100F40000621C54800F0BDFE02220721C24800F07C
:100F5000B8FE02220821C04800F0B3FE0222092197
:100F6000BD4800F0AEFE0896A0B2ADF81C0000200F
:100F7000ADF82400ADF81E0007A9B84801F0B5FA95
:100F80006020ADF80800012D03D10020ADF8140059
:100F900002E00220ADF814000120ADF80A000020A4
:100FA000049002A9AD4801F035FB0821AB4801F0DF
:100FB000BEFC0120ADF80A000020049002A9A74859
:100FC00001F061FB0821A54801F0BAFC0120ADF851
:100FD0000A000020049002A9A04801F0A1FB08210A
:100FE0009E4801F0BAFC0120ADF80A0000200490F0
:100FF00002A99A4801F0FAFB0821984801F0B6FCD2
:101000000121964801F0DCFA0121944801F0F6FA3A
:101010000AB070BD70B58AB006460C46154607A8E2
:1010200001F097FA02A801F019FC0121042001F057
:10103000A4F80121022001F057F84FF470700090DD
:1010400002208DF8040003208DF8050000208DF8A3
:10105000060001208DF807006946814800F0A6FDD2
:10106000022206217E4800F02CFE022207217C4845
:1010700000F027FE02220821794800F022FE022219
:101080000921774800F01DFE0896A0B2ADF81C00BB
:101090000020ADF82400ADF81E0007A9714801F04A
:1010A00024FA6020ADF80800012D03D10020ADF82E
:1010B000140002E00220ADF814000120ADF80A008F
:1010C0000020049002A9674801F0A4FA08216548AD
:1010D00001F02DFC0120ADF80A000020049002A9C7
:1010E000604801F0D0FA08215E4801F029FC012097
:1010F000ADF80A000020049002A95A4801F010FB44
:101100000821584801F029FC0120ADF80A00002010
:10111000049002A9534801F069FB0821514801F0ED
:1011200025FC01214F4801F04BFA01214D4801F007
:1011300065FA0AB070BD70B58AB006460C46154611
:1011400007A801F006FA02A801F088FB0121082097
:1011500001F013F80121084600F0C6FF0F200090AF
:1011600002208DF8040003208DF8050000208DF882
:10117000060001208DF807006946364800F016FD8C
:1011800002220021344800F09CFD02220121324855
:1011900000F097FD022211462F4800F092FD022236
:1011A00003212D4800F08DFD0896A0B2ADF81C007B
:1011B0000020ADF82400ADF81E0007A92A4801F070
:1011C00094F96020ADF80800012D03D10020ADF89E
:1011D000140002E00220ADF814000120ADF80A006E
:1011E0000020049002A9204801F014FA08211E48AA
:1011F00001F09DFB0120ADF80A000020049002A937
:10120000194801F040FA0821174801F099FB012024
:10121000ADF80A000020049002A9134801F080FAFA
:101220000821114801F099FB0120ADF80A000020C7
:10123000049002A90C4801F0D9FA08210A4801F0EB
:1012400095FB0121084801F0BBF90121064801F096
:10125000D5F90BE000000240000802400004004005
:101260000004024000080040000C00400AB070BDBD
:1012700010B54FF080446063A163E263236410BD46
:1012800010B50E4C2060241D2160241D2260241DF9
:10129000236010BD10B50A4C2060241D2160241D60
:1012A0002260241D236010BD10B5064C2060241D53
:1012B0002160241D2260241D236010BD34040040E1
:1012C00034080040340C00407FB505460C4601212F
:1012D000022000F052FF0295ADF804400020ADF866
:1012E0000600ADF80C0001A9884801F0FEF80122C3
:1012F0001146864801F09AFD0121844801F07EF9EB
:101300001D208DF8000001208DF8010003208DF8CC
:10131000020001208DF80300684600F024F97FBD2B
:1013200030B585B00121794801F097FD012822D11F
:10133000FFF7CEFABDEEC00A10EE104A142274492F
:10134000684605F05BFA72480C380EC82046FFF775
:1013500099FB05464FF0804045626D480C3890ED92
:10136000000ABDEEC00A10EE100A01B2002220B23F
:10137000FFF7F1F900BF0121644801F07FFD05B0DE
:1013800030BD7FB505460C460121084600F0F5FE4C
:101390000295ADF804400020ADF80600ADF80C0051
:1013A00001A94FF0804001F0A0F8012211469007FA
:1013B00001F03CFD0121880701F020F91C208DF887
:1013C000000001208DF8010003208DF802000120AB
:1013D0008DF80300684600F0C6F87FBD10B5012106
:1013E000880701F03AFD0121880701F047FD10BD93
:1013F0007FB505460C460121042000F0BEFE029593
:10140000ADF804400020ADF80600ADF80C0001A9CD
:10141000404801F06AF8012211463E4801F006FDFD
:1014200001213C4801F0EAF81E208DF8000001205F
:101430008DF8010003208DF8020001208DF80300D3
:10144000684600F090F87FBD10B50121314801F0E9
:1014500004FD01212F4801F011FD10BD7FB50546A7
:101460000C460121082000F088FE0295ADF80440EA
:101470000020ADF80600ADF80C0001A9264801F0E7
:1014800034F801221146244801F0D0FC0121224801
:1014900001F0B4F832208DF8000001208DF8010031
:1014A00003208DF8020001208DF80300684600F04B
:1014B0005AF87FBD10B50121174801F0CEFC01217B
:1014C000154801F0DBFC10BD70B505460C46022D39
:1014D00006D0032D09D0042D0CD0052D14D10EE01B
:1014E000601E5321FFF74DFF0EE0601E5321FFF7F2
:1014F000EBFE09E0601E5321FFF77AFF04E0601E57
:101500005321FFF7ABFF00BF00BF70BD00040040D8
:10151000FC00002000080040000C00400948804703
:1015200009480047FEE7FEE7FEE7FEE7FEE7FEE7C5
:10153000FEE7FEE7FEE7FEE704480549054A064BDD
:10154000704700000105000889010008C05900200B
:10155000C05F0020C05B0020C05B00203249014317
:10156000324A1160704770B5002100230F22C47801
:101570001CB32E4C246804F4E064C4F5E064C4F3A6
:101580000721C1F10404E3B20A4144789C40E1B26E
:101590008478144021430C07210E254C05786155B1
:1015A000047804F01F050124AC4005786D11AD00EE
:1015B00005F1E025C5F8004109E0047804F01F05B5
:1015C0000124AC401B4D0678761145F8264070BDCD
:1015D000194A0A400243154B1B1F1A60704739B164
:1015E000124A121D12680243104B1B1D1A6006E0BE
:1015F0000E4A121D126882430C4B1B1D1A60704765
:10160000042808D14FF0E021096941F004014FF0AE
:10161000E022116107E04FF0E021096921F00401A7
:101620004FF0E022116170470000FA050CED00E078
:1016300000E400E080E100E080FFFF1F10B5012121
:10164000080200F000FE00214FF4807000F0FBFD66
:1016500010BD30B50246002000235068F84C2040F1
:101660000D790C6844EA0524204350609068F54CDD
:101670002040D1E903542C438D682C434D7944EA32
:10168000450420439060D06A20F470000C7D641EF5
:10169000E4B2234340EA0350D06230BD0021016030
:1016A000017141718160C160016101210175704763
:1016B0000021E54A1168E54A1140D0E900231A43A8
:1016C00083681A43C3681A431143E14AC2F80413FA
:1016D00070470021016041608160C160704721B1A5
:1016E000826842F00102826003E0826822F0010217
:1016F000826070470A4600214168D64B1940114369
:10170000416070474162826270470A460021416829
:1017100021F01F0111434160704738B1CA4909687F
:1017200041F40001CA4AC2F8041306E0C649096838
:1017300021F40001C64AC2F80413704738B1C24907
:10174000096841F48001C24AC2F8041306E0BE49A8
:10175000096821F48001BE4AC2F804137047F0B54D
:1017600004460D4600200021092D11DDE068A5F199
:101770000A0606EB4607072606FA07F18843A5F195
:101780000A0606EB460603FA06F10843E0600CE0A1
:10179000206905EB4507072606FA07F1884305EBA4
:1017A000450603FA06F108432061072A0FDA606B49
:1017B000561E06EB86071F2606FA07F18843561EBB
:1017C00006EB860605FA06F10843606322E00D2A5F
:1017D0000FDA206BD61F06EB86071F2606FA07F1E5
:1017E0008843D61F06EB860605FA06F108432063F8
:1017F00010E0E06AA2F10D0606EB86071F2606FA46
:1018000007F18843A2F10D0606EB860605FA06F1FC
:101810000843E062F0BD816841F08041816070471B
:10182000014600208A6802F080420AB1012000E0EF
:101830000020704721B1826842F48062826003E038
:10184000826822F480628260704721B1826842F02F
:101850000202826003E0826822F002028260704726
:1018600010B50A4600210023416821F46041531E4F
:1018700041EA4331416010BD21B1426842F4006247
:10188000426003E0426822F4006242607047014611
:10189000C86C80B270476C48001D0068704721B169
:1018A000826842F48072826003E0826822F480726F
:1018B0008260704721B1826842F40072826003E066
:1018C000826822F400728260704738B15E4909680C
:1018D00041F400515E4AC2F8041306E05A4909680F
:1018E00021F400515A4AC2F804137047F0B5044677
:1018F0001546002000220026092911DDE068A1F12B
:101900000A0707EB470C072707FA0CF29043A1F1EF
:101910000A0707EB470703FA07F21043E0600CE001
:10192000206901EB410C072707FA0CF2904301EB09
:10193000410703FA07F210432061A06BC0F3015680
:10194000EF1C06F1010CA7EB0C0707EB870C1F2718
:1019500007FA0CF29043EF1C06F1010CA7EB0C0701
:1019600007EB870701FA07F21043A063F0BD10B53B
:101970000A4600210023816B21F44011531E41EAE5
:101980000351816310BD08B5002300930090009BB4
:101990000B440093009B1A6008BD0A460021816831
:1019A00021F470211143816070470A46002181684B
:1019B00021F44011114381607047816841F4800136
:1019C00081607047014600208A6802F480020AB1F3
:1019D000012000E00020704721B1426842F480629B
:1019E000426003E0426822F480624260704721B1A5
:1019F000426842F48052426003E0426822F480521E
:101A00004260704708B5024600200090009201F144
:101A10002800009B184400900098006880B208BD20
:101A200010B50B460021D9B2012404FA01F11AB114
:101A300044680C43446002E044688C43446010BD39
:101A4000FFFEFFFCFDF7FFC004230140E030FCFF78
:101A500000200140FFFD3FFF0246002013680B40BD
:101A60000BB1012000E000207047CA4302607047BC
:101A700070B502460020002300240B125568012691
:101A80008E4005EA060415681D4015B10CB1012011
:101A900000E0002070BD00220A12D34303607047AB
:101AA00010B504469848844208D10121084600F048
:101AB00086FB0021012000F082FB76E093488442FF
:101AC00008D10121022000F07AFB0021022000F061
:101AD00076FB6AE08E48844208D10121042000F0A0
:101AE0006EFB0021042000F06AFB5EE0894884421E
:101AF00008D10121082000F062FB0021082000F03D
:101B00005EFB52E08448844208D10121102000F09D
:101B100056FB0021102000F052FB46E07F48844233
:101B200008D10121202000F04AFB0021202000F0F4
:101B300046FB3AE07A48844208D10121402000F077
:101B40003EFB0021402000F03AFB2EE07548844225
:101B500008D10121802000F032FB0021802000F01C
:101B60002EFB22E07048844208D10121801500F04C
:101B700026FB0021A01500F022FB16E06B488442F2
:101B800008D10121401500F01AFB0021601500F07A
:101B900016FB0AE06648844207D10121001500F0D7
:101BA0000EFB0021201500F00AFB10BDF0B50A461F
:101BB00000210023002400BF3DE0012505FA01F3C8
:101BC000156805EA03049C4234D105684F000326DA
:101BD000BE40B543056015794E00B54006683543F3
:101BE00005601579012D02D01579022D16D1856871
:101BF0004F000326BE40B543856055794E00B54081
:101C0000866835438560456801268E40B54345604A
:101C1000456896798E40B6B235434560C5684F0039
:101C20000326BE40B543C560D5794E00B540C668B1
:101C30003543C560491C1029BFD3F0BD4FF6FF7175
:101C400001600021017141718171C171704708B556
:101C50004FF480320092009A0A430092009AC261C7
:101C6000C161009AC261C2690092C269009208BD56
:101C70000246002013690B400BB1012000E0002058
:101C800070470146086980B27047024600205369D8
:101C90000B400BB1012000E000207047014648696D
:101CA00080B2704701837047418370470AB1018356
:101CB00000E0418370474161704742694A40426198
:101CC0007047F0B5002300244D07ED0E02FA05F32E
:101CD000CE1000F1200555F826504E07F70E0F26BE
:101CE000BE40B543CF1000F1200646F82750CE1075
:101CF00000F1200555F8265045EA0304CE1000F106
:101D0000200545F82640F0BD0000024000040240D6
:101D100000080240000C0240001002400014024083
:101D200000180240001C0240002002400024024033
:101D300000280240F948006840F00100F7490860B7
:101D40000020F64908310860F4480068F44908406A
:101D5000F2490860F348091D0860F348EF498431EF
:101D60000860F0481038091D0860EC48006820F44D
:101D70008020EA4908600020E8490C310860E74902
:101D80008C31086070470021E44A921C11701146A2
:101D90000870704710B501460022002300204A1148
:101DA000012A02D1DD4C236808E0022A03D1DB4C72
:101DB0007034236802E0D94C7434236801F01F02A8
:101DC000012494401C400CB1012000E0002010BD13
:101DD00038B5002000900024002500BF3120FFF717
:101DE000D9FF05460098401C00900098B0F5A04F20
:101DF00001D0002DF2D03120FFF7CCFF08B1012433
:101E000000E00024204638BD01460020C34A106887
:101E100020F0F80040EAC10010607047C349086034
:101E200070470021BD4A703211701170012802D034
:101E300004280AD104E00121B84A7032117005E08B
:101E40000521B64A7032117000E000BF00BF704734
:101E5000B7490860704770B5049C41EA82150126B5
:101E6000C6EB530645EA0645054345EA0465AB4E15
:101E7000361D356070BDAD4908667047820142EA83
:101E80000172A64B84331A607047A8498866704770
:101E900010B5830143EA016343EA02739F4C88341F
:101EA000236010BDA14908677047A049C864704706
:101EB00002460020994B0833186820F0EC6042EA93
:101EC00001031843954B0833186070470246002001
:101ED000924B0833186820F0784042EA0103184317
:101EE0008E4B083318607047014600208B4A083239
:101EF000106820F0030008431060704787480830DE
:101F0000006800F00C00704701460020834A083248
:101F1000106820F0F0000843106070470146002070
:101F20007E4A0832106820F4E05008431060704781
:101F300001460020794A0832106820F4604040EAE7
:101F4000C10010607047F0B5002100220024022576
:101F500000260223714F08373F6807F00C0121B1BA
:101F6000042905D0082937D105E0724F076036E013
:101F7000714F076033E0694F3F1D3F68C7F38056DC
:101F8000664F3F1D3F6807F03F036EB16A4FB7FBD6
:101F9000F3F7DFF888C10CF1040CDCF800C0CCF3D7
:101FA000881C07FB0CF40CE0624FB7FBF3F7DFF87B
:101FB0006CC10CF1040CDCF800C0CCF3881C07FBEE
:101FC0000CF4564F3F1D3F68C7F301477F1C7D004F
:101FD000B4FBF5F7076002E0564F076000BF00BF93
:101FE0004E4F08373F6807F0F0010909534F7A5CFC
:101FF0000768D7404760494F08373F6807F4E0510A
:10200000890A4E4F7A5C4768D7408760434F08374C
:102010003F6807F46041490B484F7A5C4768D740F6
:10202000C760F0BD002100F44072B2F5407F0AD1D4
:102030003A4A0832116821F4F811414A024011432A
:10204000364A08321160354A70321268C0F30B0309
:102050001A43324B70331A6070473549443908606F
:102060007047334940390860704736490860704707
:1020700001460020294A8C32106820F01F004A1EB9
:102080001043264A8C321060704701460020234AD4
:102090008C32106820F4F8504A1E40EA02201F4A91
:1020A0008C3210607047014600201C4A8C32106848
:1020B00020F4401008431060704701460020174A82
:1020C0008C32106820F440000843106070470146CD
:1020D0000020124A8C32106820F44030084310600F
:1020E000704719490860704739B10C4A303212689C
:1020F00002430A4B30331A6006E0084A3032126855
:102100008243064B30331A607047F9B1034A3432C8
:1021100012680243014B34331A601CE0003802405D
:10212000FFFFF6EA10300024003000200000474294
:10213000800E47420024F40000127A00280000209C
:10214000FFFCFF0F5C014742E01147428F4A1268D3
:1021500082438E4B1A60704739B18C4A121D126847
:1021600002438A4B1B1D1A6006E0884A121D126842
:102170008243864B1B1D1A60704739B1834A0C326B
:1021800012680243814B0C331A6006E07F4A0C321E
:10219000126882437D4B0C331A60704739B17B4A19
:1021A000103212680243794B10331A6006E0774A06
:1021B000103212688243754B10331A60704739B180
:1021C000724A243A12680243704B243B1A6006E0BC
:1021D0006E4A243A126882436C4B243B1A60704763
:1021E00039B16A4A203A12680243684B203B1A60B0
:1021F00006E0664A203A12688243644B203B1A602C
:10220000704739B1614A1C3A126802435F4B1C3B6C
:102210001A6006E05D4A1C3A126882435B4B1C3B25
:102220001A60704739B1594A143A12680243574B41
:10223000143B1A6006E0554A143A12688243534B25
:10224000143B1A60704739B1504A103A1268024381
:102250004E4B103B1A6006E04C4A103A126882431B
:102260004A4B103B1A60704739B1484A1C32126819
:102270000243464B1C331A6006E0444A1C32126883
:102280008243424B1C331A60704739B13F4A2032B7
:10229000126802433D4B20331A6006E03B4A20326D
:1022A00012688243394B20331A60704739B1374A7C
:1022B000243212680243354B24331A6006E0334A55
:1022C000243212688243314B24331A60704739B18B
:1022D0002E4A2C32126802432C4B2C331A6006E033
:1022E0002A4A2C3212688243284B2C331A607047DA
:1022F00039B1264A303212680243244B30331A6017
:1023000006E0224A303212688243204B30331A6092
:102310007047012808D11D493C31096841F0080186
:102320001A4A3C32116007E018493C31096821F033
:102330000801164A3C321160704739B1134A273AF6
:1023400012780243114B273B1A7006E00F4A273AD6
:10235000127882430D4B273B1A7070470B48403070
:10236000006840F0807009494031086070470146BC
:102370000020064A283A12680A400AB1012000E00B
:1023800000207047014926390870704734380240F0
:1023900010B50446FE48844208D101210846FFF7E3
:1023A00052FF00210120FFF74EFF9DE0B4F1804F66
:1023B00008D101210846FFF735FF00210120FFF772
:1023C00031FF91E0F348844208D101210220FFF758
:1023D00029FF00210220FFF725FF85E0EE48844217
:1023E00008D101210420FFF71DFF00210420FFF781
:1023F00019FF79E0E948844208D101210820FFF75C
:1024000011FF00210820FFF70DFF6DE0E448844232
:1024100008D101211020FFF705FF00211020FFF750
:1024200001FF61E0DF48844208D101212020FFF74D
:10243000F9FE00212020FFF7F5FE55E0DA4884423E
:1024400008D101210220FFF7FEFE00210220FFF744
:10245000FAFE49E0D548844209D101210804FFF77A
:10246000F2FE00214FF48030FFF7EDFE3CE0D04853
:10247000844209D101214804FFF7E5FE00214FF411
:102480000030FFF7E0FE2FE0CA48844209D1012165
:102490008804FFF7D8FE00214FF48020FFF7D3FE19
:1024A00022E0C548844208D101214020FFF7BAFE4E
:1024B00000214020FFF7B6FE16E0C048844208D154
:1024C00001218020FFF7AEFE00218020FFF7AAFE49
:1024D0000AE0BB48844207D101218015FFF7A2FE24
:1024E0000021A015FFF79EFE10BD00220288A84B18
:1024F00098420ED0AC4B98420BD0B0F1804F08D030
:10250000A44B984205D0A44B984202D0A34B9842CA
:1025100004D14FF68F731A404B881A43A04B984250
:1025200007D0A04B984204D04FF6FF431A400B89C6
:102530001A4302804B68C3620B880385944B984210
:1025400002D0994B984201D18B7A03860123838272
:1025500070474FF0FF3141600021018001814180CF
:10256000817270470185828270470A460021018886
:102570004FF68F73194011430180704741627047D5
:10258000C16270470146486A70470146088D70472E
:1025900021B1028842F00202028004E002884FF674
:1025A000FD731A400280704721B1028842F0040294
:1025B000028004E002884FF6FB731A4002807047E5
:1025C00021B1028842F08002028004E002884FF6C6
:1025D0007F731A400280704702884FF6F7731A40E3
:1025E000028002880A430280704702884FF6FF4348
:1025F0001A40028002880A430280704721B1028893
:1026000042F00102028004E002884FF6FE731A4095
:102610000280704770B5002400220023058C4FF61D
:10262000FE7635400584028C8388048B4FF68F75C7
:102630002C40B51E2C400D882C43751E2A408D89D8
:102640002A434D882A43524DA84202D0564DA842F3
:1026500013D14FF6F7752A40CD892A434FF6FB7503
:102660002A408D882A434FF6FF652B404FF6FF55D1
:102670002B400D8A2B434D8A2B43838004838D6826
:102680004563028470BD70B5002400220023058CD0
:102690004FF6EF7635400584028C8388048B48F62C
:1026A000FF752C404FF6FF452C400D884FF6FF7606
:1026B00006EA05252C434FF6DF752A408D8906EA88
:1026C00005152A434D8806EA05152A43304DA842D0
:1026D00002D0354DA8421DD14FF67F752A40CD89D5
:1026E0004FF6FF7606EA05152A434FF6BF752A40D6
:1026F0008D8806EA05152A434FF6FF352B404FF229
:10270000FF752B400D8A06EA85052B434D8A06EAA4
:1027100085052B43838004838D688563028470BDA7
:1027200070B5002400220023058C4FF6FF6635406B
:102730000584028C8388848B4FF68F752C404FF66E
:10274000FC752C400D882C434FF6FF552A408D898F
:102750004FF6FF7606EA05252A434D8806EA052549
:102760002A430B4DA84202D00F4DA84238D14FF258
:10277000FF752A40CD894FF6FF7606EA05252A43E4
:102780004FF6FF352A408D8806EA05252A4319E0D1
:10279000000001400004004000080040000C004020
:1027A00000100040001400400004014000400140BF
:1027B000004401400048014000180040001C004057
:1027C000002000404EF6FF752B404DF6FF752B4064
:1027D0000D8A06EA05152B434D8A06EA05152B439B
:1027E000838084838D68C563028470BD70B50022C8
:1027F00000230024058C4EF6FF7635400584038CBB
:102800008488828B48F6FF752A404FF6FF452A40A0
:102810000D884FF6FF7606EA05252A434DF6FF752B
:102820002B408D8906EA05352B434D8806EA053590
:102830002B43FE4DA84202D0FD4DA84208D14BF6D5
:10284000FF752C400D8A4FF6FF7606EA85152C435E
:10285000848082838D680564038470BD00210180BB
:102860004180818081608181C18101824182704784
:1028700070B50346002000241846183001258D400D
:10288000ACB21D8CA5431D8409B108290AD100EB07
:10289000610005684FF68F76354005600568154381
:1028A00005600FE00D1FC5F34E052844056848F686
:1028B000FF763540056005684FF6FF7606EA02268A
:1028C0003543056070BD4163704781637047C163E4
:1028D0007047016470470A460021018B4FF68F73E1
:1028E00019401143018370470A460021018B48F6C5
:1028F000FF7319404FF6FF7303EA02231943018364
:1029000070470A460021818B4FF68F73194011439F
:10291000818370470A460021818B48F6FF73194076
:102920004FF6FF7303EA02231943818370470A4677
:102930000021018B4FF6F773194011430183704753
:102940000A460021018B4FF2FF7319404FF6FF73C7
:1029500003EA02231943018370470A460021818B51
:102960004FF6F77319401143818370470A460021DF
:10297000818B4FF2FF7319404FF6FF7303EA022376
:102980001943818370470A460021018B4FF6FB7380
:1029900019401143018370470A460021018B4FF60D
:1029A000FF3319404FF6FF7303EA022319430183F3
:1029B00070470A460021818B4FF6FB731940114383
:1029C000818370470A460021818B4FF6FF331940FF
:1029D0004FF6FF7303EA02231943818370470A46C7
:1029E0000021018B4FF67F7319401143018370471B
:1029F0000A460021018BC1F30E014FF6FF7303EA73
:102A000002231943018370470A460021818B4FF648
:102A10007F7319401143818370470A460021818BDF
:102A2000C1F30E014FF6FF7303EA022319438183BA
:102A300070470A460021018C4FF6FD73194011437F
:102A4000018470470A460021018C4FF6F773194044
:102A50001143018470470A460021018C4FF6DF7351
:102A600019404FF6FF7303EA0213194301847047BC
:102A70000A460021018C4FF67F7319404FF6FF7311
:102A800003EA02131943018470470A460021018CAE
:102A90004FF6FF5319404FF6FF7303EA0223194321
:102AA000018470470A460021018C4FF2FF731940E0
:102AB0004FF6FF7303EA02231943018470470A4665
:102AC0000021018C4DF6FF7319404FF6FF7303EAA6
:102AD000023319430184704730B5002301248C4030
:102AE000A3B2048C9C430484048C02FA01F5ADB2B9
:102AF0002C43048430BD30B5002304248C40A3B2A1
:102B0000048C9C430484048C02FA01F5ADB22C437E
:102B1000048430BD828B4FF2FF331A408283828B54
:102B20004FF6FF7303EA01231A4382837047F0B51F
:102B30000C461546002100220026078C4EF6FF7C2D
:102B400007EA0C070784818B028C4FF6FF7707EAB0
:102B5000043640F6FF4739404FF6FF7707EA05276E
:102B600039434FF6FF7707EA0337394345F6FF77D6
:102B70003A4046F480573A4381830284F0BD828B09
:102B80004FF6F3731A408283828B0A438283704725
:102B9000F0B50C461546002100220026078C4FF6A2
:102BA000FF6C07EA0C070784818B028C4FF6FF77D6
:102BB00007EA04264FF60C7739404FF6FF7707EA0D
:102BC00003172F4339434FF2FF573A4046F48077BB
:102BD0003A4381830284F0BD028B4FF2FF331A40E7
:102BE0000283028B4FF6FF7303EA01231A43028329
:102BF0007047F0B50C461546002100220026078CD0
:102C00004FF6EF7C07EA0C070784018B028C4FF626
:102C1000FF7707EA041640F6FF4739404FF6FF7783
:102C200007EA033739434FF6FF7703E0000001401E
:102C30000004014007EA052739434FF65F773A4021
:102C400046F010073A4301830284F0BD028B4FF631
:102C5000F3731A400283028B0A4302837047F0B574
:102C60000C46154600210022068C4FF6FE773E40AA
:102C70000684018B028C4FF60C7631407E1C06EAEE
:102C800003162E4331434FF6F576324044F00106E9
:102C9000324301830284F0BD70B505460C4620889E
:102CA00050B92389A28861882846FFF7D8FFE188B8
:102CB0002846FFF7CBFF25E0208804280AD1238986
:102CC000A28861882846FFF794FFE1882846FFF72D
:102CD00083FF17E0208808280AD12389A288618809
:102CE0002846FFF755FFE1882846FFF748FF09E02F
:102CF0002389A28861882846FFF719FFE1882846C2
:102D0000FFF708FF70BD0021018041800121818013
:102D10000021C180018170472DE9F04105460C4634
:102D200000260127608808B9022600E00026A08856
:102D3000012801D1022700E001272088A0B92389BA
:102D4000A28861882846FFF78AFFE1882846FFF7B6
:102D50007DFF23893A4631462846FFF74AFFE1883E
:102D60002846FFF739FF13E02389A28861882846A7
:102D7000FFF73FFFE1882846FFF72EFF23893A46F9
:102D800031462846FFF76BFFE1882846FFF75EFFD4
:102D9000BDE8F0810146486B70470146886B70477B
:102DA0000146C86B70470146086C70470A884B881B
:102DB0001A438B881A43CB881A430B891A434B89D1
:102DC0001A438B891A43A0F84420704700210180E0
:102DD00041808180C180018141818181704731B111
:102DE000B0F8442042F40042A0F8442005E0B0F8D6
:102DF0004420C2F30E02A0F84420704721B182881B
:102E000042F00402828004E082884FF6FB731A408D
:102E10008280704721B1828842F00102828004E002
:102E200082884FF6FE731A40828070471AB18389F8
:102E30000B43838102E083898B43838170478182C6
:102E4000704702460020138A0B400BB1012000E0BE
:102E500000207047CA430282704730B50246002006
:102E600000230024158A05EA0103958905EA010477
:102E700013B10CB1012000E0002030BDCA43028232
:102E8000704741EA0203A0F8483070471AB18389BD
:102E90000B43838102E083898B438381704721B197
:102EA000828842F00802828004E082884FF6F7733D
:102EB0001A408280704701894FF6F87211400181F3
:102EC00070470A46002101894FF68F73194011435C
:102ED0000181704730B504460D4629462046FFF76C
:102EE000F0FF208940F00700208130BD2DE9F0413E
:102EF00004460D4616461F46602D06D13B4601226C
:102F000031462046FFF775FE05E03B46012231467B
:102F10002046FFF7A4FE29462046FFF7D2FF20896E
:102F200040F007002081BDE8F08130B50C4600215B
:102F30000189C9B24FF6FF7505EA032515432543FC
:102F40002943018130BD2DE9F04105460E46174663
:102F50009846002443463A4631462846FFF7E5FFA7
:102F60002C894FF6F870044044F007044FF68F7038
:102F7000044044F070042C81BDE8F081F0B50446B3
:102F80000D4616461F463B46324629462046FFF769
:102F9000CCFF208940F480402081F0BD82884FF62C
:102FA0008F731A40828082880A4382807047028928
:102FB0004FF6F8731A40028102890A430281704772
:102FC00002894FF67F731A40028102890A43028107
:102FD0007047F0B50C4615461E460021002200231E
:102FE0000189028B038C4FF6F877394021434FF665
:102FF000FC473A4040F201173A434FF6DD773B4039
:103000004FF6FF7707EA06172F433B430181028300
:103010000384F0BD21B1828842F08002828004E006
:1030200082884FF67F731A4082807047A0F8501054
:103030007047000010B50446FA48844208D10121C7
:103040001020FFF700F900211020FFF7FCF857E0EF
:10305000F548844209D101214804FFF7E3F8002133
:103060004FF40030FFF7DEF84AE0F048844209D11F
:1030700001218804FFF7D6F800214FF48020FFF7E4
:10308000D1F83DE0EA48844209D10121C804FFF7A4
:10309000C9F800214FF40020FFF7C4F830E0E548FC
:1030A000844209D101210805FFF7BCF800214FF443
:1030B0008010FFF7B7F823E0DF48844208D10121F0
:1030C0002020FFF7C0F800212020FFF7BCF817E010
:1030D000DA48844209D101218807FFF7A3F80021CB
:1030E0004FF08040FFF79EF80AE0D548844207D1B0
:1030F00001214005FFF796F800216005FFF792F8DF
:1031000010BD2DE9FF4705460E460024A14600BF2D
:10311000A046B08900B100BF2C8A24F44054F08846
:1031200004432C82AC8941F20C608443B08831891D
:103130000843718908430443AC81AC8A24F4407489
:10314000B0890443AC826846FEF7FDFEB54885426F
:1031500002D0B948854202D1DDF80C9001E0DDF8DB
:103160000890A88900F4004040B109EBC90000EBC9
:10317000091031684900B0FBF1F707E009EBC9001D
:1031800000EB091031688900B0FBF1F76420B7FB50
:10319000F0F004012009642101FB1078A88900F4F3
:1031A000004040B1322000EBC800B0FBF1F000F06D
:1031B0000700044308E0322000EB08106421B0FB54
:1031C000F1F000F00F0004432C81BDE8FF874FF4BD
:1031D0001651016000218180C18001810C21418153
:1031E00000218181704710B502460020108A20F42A
:1031F00070600B884C8823438C882343CC882343FE
:103200001843108210BD0021018041808180C1805F
:10321000704721B1828942F40052828104E08289A0
:103220004DF6FF731A4082817047028B02F47F4291
:103230000283028B0A430283704721B1828942F4E0
:103240000042828103E08289C2F30E0282817047CC
:1032500021B1828A42F40062828204E0828A4FF2C3
:10326000FF731A4082827047C1F308028280704760
:1032700001468888C0F308007047028A4FF6F07351
:103280001A400282028A0A430282704721B182896F
:1032900042F00202828104E082894FF6FD731A40F7
:1032A0008281704782894FF2FF731A40828182893E
:1032B0000A4382817047028A4FF6DF731A40028206
:1032C000028A0A430282704721B1028A42F4804294
:1032D000028204E0028A4BF6FF731A4002827047B2
:1032E000818941F001018181704721B1828A42F0D8
:1032F0000802828204E0828A4FF6F7731A408282C3
:103300007047028BD2B20283028B42EA012202830F
:10331000704721B1828A42F02002828204E0828AD0
:103320004FF6DF731A408282704721B1828A42F0E1
:103330001002828204E0828A4FF6EF731A40828282
:103340007047828A4FF6FB731A408282828A0A4350
:103350008282704721B1828A42F00202828204E0B6
:10336000828A4FF6FD731A40828270471AB1838AAF
:103370000B43838202E0838A8B4383827047F0B5DC
:103380000346002400260025002040F66A17B942B3
:1033900000D100BF1846C1F3421401F01F060127F7
:1033A00007FA06F5012C01D10C3004E0022C01D102
:1033B000103000E014301AB107682F43076002E0B4
:1033C0000768AF430760F0BD02460020B1F5007FFB
:1033D00000D100BF13880B400BB1012000E000209A
:1033E000704701F40072B2F5007F00D100BFCA43FC
:1033F0000280704770B5024600240023002500209B
:1034000040F66A16B14200D100BFC1F3421501F087
:103410001F03012606FA03F3012D13D196893340C9
:1034200017E0000000100140004400400048004048
:10343000004C004000500040001401400078004063
:10344000007C0040022D02D1168A334001E0968AAA
:1034500033400C12012606FA04F41688344013B1E6
:103460000CB1012000E0002070BD10B50022002347
:1034700040F66A14A14200D100BF0A120124944010
:10348000A3B2DC43048010BD10B502F013F901288B
:1034900002D002F0F3FE04E040480068401C3F49BF
:1034A000086010BD10B502F005F9012802D001F046
:1034B00027FF10BD39480068FBE710B50420FEF770
:1034C0009FF8374800683749B0FBF1F0364908707B
:1034D000334800683349B0FBF1F44FF47A70444349
:1034E0000120324908804FF0E020006940F00200DE
:1034F0004FF0E021086108464461006940F0010096
:10350000086110BD70B5034600224FF0E0267569D2
:10351000254E367803FB06F44FF0E026B16910E043
:103520004FF0E026B06988420BD0884202D20E1AD2
:10353000324402E02E1A0E4432440146A24200D325
:1035400000E0EDE700BF70BD70B5044602F0B2F8D0
:10355000012810D015480088844206D313480088FB
:10356000B4FBF0F5284601F052FC10480088B4FB8B
:10357000F0F100FB11444FF47A7104FB01F0FFF706
:10358000C1FF70BD30B50446002504E04FF47A70E9
:10359000FFF7B8FF6D1CA542F8D330BD3C000020FA
:1035A0001400002040420F00380000203A000020A4
:1035B00000BF704700BFFE4A128802F04002002A96
:1035C000F9D0C2B2FA4B9A80704710B588B0044661
:1035D00001210846FEF788FD01211020FEF7DEFDDF
:1035E00007220921F348FEF76CFB07220A21F14864
:1035F000FEF767FB4FF4C060069002208DF81C00B8
:103600008DF81D0000208DF81E0001208DF81F0090
:1036100006A9E848FEF7CAFA02940020ADF80C00AB
:10362000ADF80E00ADF81000ADF814000C20ADF8A8
:10363000120002A9DE48FFF764FD0121DC48FFF714
:10364000E8FD012240F22551D948FFF798FE2520D8
:103650008DF8040003208DF805008DF80600012088
:103660008DF8070001A8FDF77EFF08B010BD10B56A
:10367000CF48008800F0080010B1CD488088C4B25F
:1036800040F22551CA48FFF7B5FE38B140F2255146
:10369000C748FFF7EAFEC6488088C4B240F22771E7
:1036A000C348FFF7A7FEA8B1C34801780078401CC3
:1036B000C14A1070C148405CBD49888010460078FE
:1036C000BF490978884205D1B948808920F0800037
:1036D000B749888110BD70B505460E4600240AE042
:1036E000295DB74802780078401CB54B1870B34884
:1036F0008154601CC4B2B442F2DBAD48808900F052
:10370000800028B9012240F22771A948FFF737FE4F
:1037100070BDA749888000BFA549098801F0400114
:103720000029F9D0704710B58AB004460121480439
:10373000FEF723FD01210846FEF7D6FC26208DF872
:103740000C0002208DF80D0000208DF80E000120E5
:103750008DF80F0003A8FDF706FF07220221954808
:10376000FEF7AFFA072203219248FEF7AAFA0420D7
:10377000019002208DF808008DF8090000208DF8D6
:103780000A0001208DF80B0001A98A48FEF70EFA05
:103790000820019002208DF808008DF80900012012
:1037A0008DF80A0000208DF80B0001A98148FEF772
:1037B000FDF906940020ADF81C00ADF81E00ADF830
:1037C0002000ADF824000C20ADF822000420ADF854
:1037D00022000020ADF81000ADF812004FF4007088
:1037E000ADF814000020ADF8160006A97548FFF7E3
:1037F00088FC04A97348FFF7F6FC012240F225512A
:103800007048FFF7BCFD01216E48FFF702FD0AB0CA
:1038100010BD10B56B48008800F0080018B1694869
:10382000001D0088C4B240F225516648FFF7E2FD52
:1038300040B140F225516348FFF717FE6148001D73
:103840000088C4B240F227715E48FFF7D3FDC0B1D3
:103850005D4801780078401C5B4A10705B48405C12
:103860005849091D0880104600785949097888424E
:1038700007D154480C30008820F0800051490C31A9
:10388000088010BD70B505460E4600240AE0295D8B
:103890004F4802780078401C4D4B18704B488154BB
:1038A000601CC4B2B442F2DB46480C30008800F021
:1038B000800028B9012240F227714248FFF75FFDDE
:1038C00070BD4049091D088000BF3E49098801F0CC
:1038D00040010029F9D0704710B58AB00446012193
:1038E0008804FEF74AFC01210420FEF7FDFB272097
:1038F0008DF80C0001208DF80D0000208DF80E00D1
:1039000001208DF80F0003A8FDF72DFE07220A21E4
:103910003048FEF7D6F907220B212E48FEF7D1F9E1
:103920004FF48060019002208DF808008DF80900A6
:1039300000208DF80A0001208DF80B0001A9254810
:10394000FEF734F94FF40060019002208DF8080072
:103950008DF8090001208DF80A0000208DF80B0079
:1039600001A91C48FEF722F906940020ADF81C00BE
:10397000ADF81E00ADF82000ADF824000C20ADF825
:1039800022000020ADF81000ADF812004FF40070D6
:10399000ADF814000020ADF8160006A90E48FFF798
:1039A000B0FB04A90C48FFF71EFC012216E0000042
:1039B00000100140000002404400002010010020DF
:1039C0004500002000440040460000201002002076
:1039D00047000020000802400048004040F2255106
:1039E000F948FFF7CCFC0121F748FFF712FC0AB0B9
:1039F00010BD10B5F448008800F0080018B1F24876
:103A0000001D0088C4B240F22551EF48FFF7F2FCD8
:103A100040B140F22551EC48FFF727FDEA48001D70
:103A20000088C4B240F22771E748FFF7E3FCC0B159
:103A3000E64801780078401CE44A1070E448405C95
:103A4000E149091D088010460078E249097888425A
:103A500007D1DD480C30008820F08000DA490C31B5
:103A6000088010BD70B505460E4600240AE0295DA9
:103A7000D84802780078401CD64B1870D44881543E
:103A8000601CC4B2B442F2DBCF480C30008800F0B6
:103A9000800028B9012240F22771CB48FFF76FFC64
:103AA00070BDC949091D088000BFC749098801F0D8
:103AB00040010029F9D0704710B588B004460121B3
:103AC000C804FEF75AFB01210846FEF70DFB34201F
:103AD0008DF80C0002208DF80D0001208DF80E00ED
:103AE0008DF80F0003A8FDF73EFD08220021BA481B
:103AF000FEF7E7F808220121B748FEF7E2F80120B7
:103B0000019002208DF808008DF8090000208DF842
:103B10000A0001208DF80B0001A9AF48FEF746F816
:103B2000022001908DF808008DF8090001208DF821
:103B30000A0000208DF80B0001A9A748FEF736F80F
:103B400004940020ADF81400ADF81600ADF818008C
:103B5000ADF81C000C20ADF81A0004A99F48FFF72F
:103B6000D0FA012240F225519C48FFF708FC0121C0
:103B70009A48FFF74EFB08B010BD10B59748008873
:103B800000F0080018B19548001D0088C4B240F24A
:103B900025519248FFF72EFC40B140F225518F4845
:103BA000FFF763FC8D48001D0088C4B240F2277106
:103BB0008A48FFF71FFCC0B1894801780078401C93
:103BC000874A10708748405C8449091D0880104668
:103BD000007885490978884207D180480C300088F0
:103BE00020F080007D490C31088010BD70B505467D
:103BF0000E4600240AE0295D7B4802780078401CCC
:103C0000794B187077488154601CC4B2B442F2DB1F
:103C100072480C30008800F0800028B9012240F280
:103C200027716E48FFF7ABFB70BD6C49091D08801A
:103C300000BF6A49098801F040010029F9D07047A6
:103C400010B588B0044601210805FEF796FA012157
:103C50000420FEF749FA01210820FEF745FA352035
:103C60008DF80C0002208DF80D0001208DF80E005B
:103C70008DF80F0003A8FDF776FC08220C215B48A5
:103C8000FEF71FF8082202215948FEF71AF84FF4F0
:103C90008050019002208DF808008DF80900002066
:103CA0008DF80A0001208DF80B0001A94F48FDF79F
:103CB0007DFF0420019002208DF808008DF8090096
:103CC00001208DF80A0000208DF80B0001A948485A
:103CD000FDF76CFF04940020ADF81400ADF8160059
:103CE000ADF81800ADF81C000C20ADF81A0004A9BE
:103CF0004048FFF706FA012240F225513D48FFF700
:103D00003EFB01213B48FFF784FA08B010BD10B517
:103D10003848008800F0080010B136488088C4B2E6
:103D200040F225513348FFF765FB38B140F2255189
:103D30003048FFF79AFB2F488088C4B240F22771C1
:103D40002C48FFF757FBA8B12B4801780078401C9E
:103D5000294A10702948405C26498880104600781E
:103D600027490978884205D12248808920F08000BF
:103D70002049888110BD70B505460E4600240AE032
:103D8000295D1F4802780078401C1D4B18701B48A5
:103D90008154601CC4B2B442F2DB1648808900F042
:103DA000800028B9012240F227711248FFF7E7FA94
:103DB00070BD1049888000BF0E49098801F040019C
:103DC0000029F9D07047000000480040480000205A
:103DD000100300204900002000000240004C004079
:103DE0004A000020100400204B0000200008024080
:103DF000000C0240005000404C0000201005002044
:103E00004D00002000F1080141604FF0FF3181605A
:103E100000F10801C16001610021016070470021CB
:103E20000161704742684A6093688B60936859608B
:103E30009160086103685B1C0360704710B502461F
:103E40000B685C1C0CB9106907E002F1080000E087
:103E50004068446824689C42FAD944684C604C68C5
:103E6000A160886041600A611468641C146010BD20
:103E700001460A69D1E901309860D1E9010358602F
:103E80005068884201D1886850600020086110683D
:103E9000401E10601068704770B505460E462C46EF
:103EA00002F0CFF9D4E90F12206801FB0200606034
:103EB0000020A0632068A060E06B401E226C216897
:103EC00000FB0210E060FF2084F8440084F8450005
:103ED0009EB9206908B9012000E00020A8B904F1CA
:103EE000100001F041FB80B14FF08050FB490860A9
:103EF000BFF34F8FBFF36F8F07E004F11000FFF7A0
:103F000081FF04F12400FFF77DFF02F0A9F90120F1
:103F100070BD2DE9F04106460D4617469846069CB1
:103F20000DB9246000E02760E66325640121204686
:103F3000FFF7B2FF84F850800020A064BDE8F08154
:103F40002DE9F84307460D4690460DB9002601E0DD
:103F500007FB05F606F1540002F013FA044644B1DB
:103F600004F1540943464A46294638460094FFF76F
:103F7000D0FF2046BDE8F8832DE9F04104460F4606
:103F800015464FF00008A66B206C40B9206860BB56
:103F9000606801F0EDFB80460020606025E07DB99F
:103FA0003946226CA06802F0E4FB216CA06808444A
:103FB000A060D4E90110884217D32068A06014E003
:103FC0003946226CE06802F0D4FB216CE068401AAC
:103FD000E0602168E068884203D2216C6068401A82
:103FE000E060022D01D106B1761E701CA063404630
:103FF000BDE8F0812DE9F3410D460098846C00275F
:10400000A06BE16B88421BD294F945602A46694651
:104010002046FFF7B1FF0746701C60B9606A08B917
:10402000012000E0002050B904F1240001F09CFAC6
:1040300028B1012703E0701C40B284F8450000BF9E
:104040003846BDE8FC8170B5044602F0FAF894F9F0
:1040500045501AE0A06C38B100212046FFF7CAFF96
:1040600088B101F015FB0EE0606A08B9012000E09C
:10407000002038B904F1240001F076FA18B101F0FB
:1040800007FB00E003E0681E45B2002DE2DC00BF44
:10409000FF2084F8450002F0E3F802F0D2F894F92A
:1040A000445010E0206908B9012000E0002048B920
:1040B00004F1100001F058FA08B101F0E9FA681EA5
:1040C00045B200E001E0002DECDC00BFFF2084F8E9
:1040D000440002F0C5F870BD70B5054602F0B1F8B5
:1040E000A86BE96B884201D1012400E0002402F0B2
:1040F000B7F8204670BD2DE9FF4383B007468846D8
:104100001D464FF000093C4600BF02F09AF8A06B34
:10411000E16B884201D3022D38D12A464146204620
:10412000FFF72AFF0646A06C68B129462046FFF734
:1041300061FF28B34FF0805068490860BFF34F8F8C
:10414000BFF36F8F1CE0606A08B9012000E0002017
:1041500068B904F1240001F007FA88B14FF08050EB
:104160005E490860BFF34F8FBFF36F8F08E03EB129
:104170004FF0805059490860BFF34F8FBFF36F8FE6
:1041800002F06EF8012007B0BDE8F083059818B979
:1041900002F066F80020F6E7B9F1000F04D101A89B
:1041A00001F045FA4FF0010902F05AF800F0F4FD71
:1041B00002F047F894F94400401C10B9002084F83C
:1041C000440094F94500401C10B9002084F84500D3
:1041D00002F046F805A901A801F030FAF0B920462E
:1041E000FFF77AFFA0B104F11000059901F061F921
:1041F0002046FFF728FF00F004FD002885D14FF08E
:10420000805036490860BFF34F8FBFF36F8F7CE754
:104210002046FFF718FF00F0F4FC76E72046FFF792
:1042200012FF00F0EEFC0020ADE710B504464CB1E3
:10423000002060602060E06000231A461946204696
:10424000FFF759FF10BD2DE9F04104460126002774
:10425000224600210120FFF773FE05462846FFF79E
:10426000E4FF2846BDE8F08170B50646344601F00B
:104270001EFA616888420CD1E068401EE060E06888
:1042800028B900231A4619462046FFF734FF0125B6
:1042900000E00025284670BD70B5054601F0D1FF4D
:1042A000A86B08B9012400E0002401F0D9FF2046E2
:1042B00070BD70B504460D46206C70B1216CE0688D
:1042C0000844E0606168E068884201D32068E060EB
:1042D0002846226CE16802F04CFA70BD04ED00E063
:1042E0002DE9FF4782B0054689461E464FF0000A79
:1042F0002C4600BF01F0A5FFD4F83880B8F1000FBC
:104300003BD0E76849462046FFF7D3FFDEB9A8F166
:104310000100A063206810B901F0EEFA6060206926
:1043200008B9012000E0002008BB04F1100001F0F2
:104330001BF9E0B14FF08050F9490860BFF34F8F8F
:10434000BFF36F8F13E0E760606A08B9012000E0F7
:10435000002060B904F1240001F006F938B14FF0F3
:104360008050EF490860BFF34F8FBFF36F8F01F0AC
:1043700077FF012006B0BDE8F087049818B901F076
:104380006FFF0020F6E7BAF1000F04D1684601F094
:104390004EF94FF0010A01F063FF00F0FDFC01F05F
:1043A00050FF94F94400401C10B9002084F84400E8
:1043B00094F94500401C10B9002084F8450001F034
:1043C0004FFF04A9684601F039F940BB2046FFF7CA
:1043D00063FFF0B1206830B901F033FF606801F08D
:1043E00075F901F03DFF04F12400049901F061F832
:1043F0002046FFF728FE00F004FC00287FF47AAF87
:104400004FF08050C6490860BFF34F8FBFF36F8FE6
:1044100070E72046FFF717FE00F0F3FB6AE720463F
:10442000FFF711FE00F0EDFB2046FFF735FF0028F7
:10443000EED000209EE72DE9F04106460F463446B7
:1044400001F035F96168884204D1E068401CE06001
:1044500001250AE000233A4619462046FFF740FFAF
:10446000054615B1E068401CE0602846BDE8F081D3
:1044700070B506460D46022200213046FFF760FD6A
:10448000044604B1A563204670BD2DE9F05F0646E1
:104490008A4615461F46344600BF5021EFF311806F
:1044A00081F31188BFF34F8FBFF36F8F00BF814639
:1044B000A06BE16B884201D3022F2BD194F945B058
:1044C0003A4651462046FFF757FD0BF10100C8B9A7
:1044D000A06C40B139462046FFF78CFDB8B1B5B1AC
:1044E0000120286013E0606A08B9012000E0002084
:1044F00068B904F1240001F037F840B13DB1012062
:10450000286004E00BF1010040B284F845004FF050
:10451000010801E04FF0000800BF89F3118800BFD7
:104520004046BDE8F09F2DE9F04706460D4634466B
:1045300000BF5021EFF3118081F31188BFF34F8F3B
:10454000BFF36F8F00BF8046D4F83890E06B4845CA
:1045500028D994F945A009F10100A0630AF10100EE
:10456000C8B9A06C40B100212046FFF743FDB8B1A7
:10457000B5B10120286013E0606A08B9012000E0AD
:10458000002068B904F1240000F0EEFF40B13DB115
:104590000120286004E00AF1010040B284F84500DF
:1045A000012700E0002700BF88F3118800BF3846CC
:1045B000BDE8F0872DE9F05F05468A4616462C4691
:1045C00000BF5021EFF3118081F31188BFF34F8FAB
:1045D000BFF36F8F00BF8046D4F83890B9F1000F59
:1045E00021D094F944B051462046FFF762FEA9F16C
:1045F0000100A0630BF1010070B9206908B9012026
:1046000000E0002068B904F1100000F0ADFF40B1F7
:104610003EB10120306004E00BF1010040B284F8AB
:104620004400012700E0002700BF88F3118800BF85
:104630003846BDE8F09F2DE9F047054689462C46EF
:1046400000BF5021EFF3118081F31188BFF34F8F2A
:10465000BFF36F8F00BF0746A06B48B1D4F80C8042
:1046600049462046FFF725FEC4F80C80012600E0ED
:10467000002600BF87F3118800BF3046BDE8F087F1
:1046800070B5044601F0DDFDA56B01F0E9FD28469B
:1046900070BD70B50446254601F0D3FDD5E90E1076
:1046A000461A01F0DDFD304670BD0146886B70474B
:1046B000014600200EE01B4A02EBC00252688A420B
:1046C00007D10022174B43F8302003EBC0035A6098
:1046D00002E0401C0828EED300BF704770B50446C6
:1046E00025462846FFF7E4FF284601F0A8FE70BDE6
:1046F0000146C86C7047C1647047014691F850008C
:10470000704701468A6B0AB9012000E0002070471B
:1047100001468A6BCB6B9A4206D1012005E000006E
:1047200004ED00E010060020002070470246002043
:104730000BE04A4B53F8303033B9484B43F8301054
:1047400003EBC0035A6002E0401C0828F1D300BF0D
:1047500070470246002000210AE0404B03EBC103F2
:104760005B68934203D13D4B53F8310002E0491C92
:104770000829F2D300BF70472DE9F04105460E46E7
:1047800017462C4601F05DFD94F94400401C10B919
:10479000002084F8440094F94500401C10B9002022
:1047A00084F8450001F05CFDA06B28B93A4631461B
:1047B00004F1240000F0C6FE2046FFF744FCBDE8EB
:1047C000F08170B50446002204212046FFF7B8FBB3
:1047D0000546284670BD70B504460E4601F031FD11
:1047E000A06C08B1002505E0A06B08B1002501E030
:1047F000A664012501F034FD284670BD2DE9F04185
:1048000005460F462E46B06CB84201D000240AE09F
:10481000B06B08B1002406E001F013FD0020B06485
:1048200001F01EFD01242046BDE8F08138B50546A3
:104830000C46002000900023224669462846FFF7D8
:104840004FFD009838BD38B5044600200090002286
:1048500069462046FFF7AEFE009838BD10060020DE
:1048600010B5002407E004EB8401FE4A02EB81004E
:10487000FFF7C8FA641C202CF5D3FB48FFF7C2FAF7
:10488000FA48FFF7BFFAFA48FFF7BCFAF948FFF712
:10489000B9FAF948FFF7B6FAF348F8490860F3485F
:1048A000F749086010BD10B5044601F0CAFCF54890
:1048B0000068401CF3490860F348006840B9F248BA
:1048C00004600846006801280DD1FFF7C9FF0AE01F
:1048D000EE48006838B9EC480068C06AE16A88426E
:1048E00001D8E9480460EA480068401CE8490860CB
:1048F00008460068606494F82C1001208840E5495F
:1049000009680843E3490860E16A01EB8101D54A7F
:1049100002EB8100211DFFF785FA01F0A1FCDB48C5
:10492000006868B1D8480068C06AE16A884207D266
:104930004FF08050D8490860BFF34F8FBFF36F8F9F
:1049400010BD2DE9F05F81460F4690469A460A9EBB
:104950000C9C4FEA8801A522206B01F081FFA8F191
:104960000100216B01EB800B2BF0070B002507E00A
:10497000795D04F134004155785D00B902E06D1CA9
:10498000102DF5D300BF002143200155202E00D368
:104990001F26E662E66400202065201DFFF73FFA2F
:1049A00004F11800FFF73BFA2461C6F12000A06172
:1049B00064620020606584F85800524649465846B3
:1049C00001F001FC20600B9808B10B980460BDE871
:1049D000F09F2DE9FF4F85B0804689461746DDE9F7
:1049E00012ABB80001F0CDFC064656B15C2001F0D8
:1049F000C8FC04460CB1266304E0304601F01FFDFC
:104A000000E000247CB10020CDE900ABCDE90240FC
:104A10003A4649464046089BFFF793FF2046FFF77A
:104A200042FF012501E04FF0FF35284609B0BDE8FF
:104A3000F08F92490968096809B9012100E0002155
:104A400021B14FF0FF31954A116006E08B490968AA
:104A5000C968C868914A41681160704710B504463A
:104A6000206B01F0ECFC204601F0E9FC10BD70B5B4
:104A7000054601F0E6FB15B98348006800E02846CA
:104A80000446201DFFF7F4F978B9E06A00EB8000D6
:104A9000744951F8200040B994F82C100120884046
:104AA0007C49096881437B480160A06A18B104F120
:104AB0001800FFF7DDF976480068401C744908606B
:104AC00071480068844209D1211D6A48FFF7AAF99C
:104AD00073480068401C7249086009E06948006832
:104AE000401E684908602046FFF7B8FFFFF7A1FFA6
:104AF00001F0B6FB6548006858B16348006884421D
:104B000007D14FF0805064490860BFF34F8FBFF367
:104B10006F8F70BD2DE9F0410027624800680028C2
:104B200063D161480068451C5F4805608DB95348F2
:104B3000D0F8008052480068504908605048C0F8DA
:104B400000805A480068401C58490860FFF771FF10
:104B500000BF5248006885423BD300BF4748006809
:104B6000006808B9012000E0002020B14FF0FF30BC
:104B70004A4908602CE041480068C068C46866681B
:104B8000B54202D24548066022E0201DFFF770F9C9
:104B9000A06A18B104F11800FFF76AF994F82C1014
:104BA000012088403B49096808433A490860E16AA6
:104BB00001EB81012B4A02EB8100211DFFF732F945
:104BC0003149E06A0968C96A8842C7D30127C5E745
:104BD00000BF2D480068C06A00EB8000214951F8F1
:104BE0002000012800D9012704E031480068401C5A
:104BF0002F4908602F48006800B101273846BDE8FA
:104C0000F08170B50024002601F01BFB25480068E8
:104C1000401E244908600846006800287AD11948D7
:104C20000068002876D04FE01148C068C46804F1DD
:104C30001800FFF71DF9201DFFF71AF994F82C1042
:104C40000120884013490968084312490860E16A55
:104C500001EB8101034A02EB8100211DFFF7E2F81D
:104C6000094929E050060020D0080020E40800206F
:104C7000F80800200C090020200900205400002022
:104C80005800002060000020500000206C00002030
:104C90007C0000206800002004ED00E0800000207F
:104CA0005C000020880000206400002078000020C4
:104CB0007000002074000020E06A0968C96A884218
:104CC00002D30120FA490860FA48006808B90120B7
:104CD00000E000200028A7D00CB1FFF7AAFEF6489C
:104CE000056865B100BFFFF715FF10B10120F0495D
:104CF00008606D1E002DF6D10020EF490860EC48D9
:104D0000006838B101263007EC490860BFF34F8FC7
:104D1000BFF36F8F01F0A4FA304670BD2DE9F0416A
:104D200005460E46E6480768E6480068001DFFF79E
:104D30009FF850B9E348006890F82C100120884093
:104D4000E14909688143E0480160681C38B936B11F
:104D5000DC480168091DDD48FFF764F81AE07C199A
:104D6000D84800684460BC4207D2D6480168091D93
:104D7000D7480068FFF762F80CE0D2480168091DC7
:104D8000D4480068FFF75AF8D3480068844201D23B
:104D9000D1480460BDE8F081D0480068401CCF498C
:104DA000086070472DE9F047044688464FF0000937
:104DB000FFF7F2FFC2480668206800EB080520688C
:104DC000B04207D92068A8420BD9B54209D94FF0A3
:104DD000010906E02068A84201D8B54201D94FF088
:104DE00001092560B9F1000F03D0A81B0021FFF7CE
:104DF00095FFFFF706FF07463FB94FF08050AF49D8
:104E00000860BFF34F8FBFF36F8FBDE8F08770B5B9
:104E10000446002544B1FFF7BFFF00212046FFF7FD
:104E20007DFFFFF7EEFE05463DB94FF08050A349E8
:104E30000860BFF34F8FBFF36F8F70BD2DE9F04156
:104E4000064637469F480068874201D100241EE08D
:104E500001F0F7F97D6901F003FA9E480068854288
:104E600003D09B480068854201D102240FE0974897
:104E7000854205D1B86A08B9032408E0022406E097
:104E80009748854200D00DB9042400E00124204653
:104E9000BDE8F08170B5044601F0D3F914B9894832
:104EA000006800E020460646F56A01F0D9F9284678
:104EB00070BD70B5024600BF5025EFF3118485F335
:104EC0001188BFF34F8FBFF36F8F00BF214612B918
:104ED0007C4C246800E014462346D86A00BF81F366
:104EE000118800BF70BD2DE9F04780460D464FF098
:104EF0000009202D00D31F2501F0A3F9B8F1000F00
:104F000002D17048006800E040460446E66CAE42BC
:104F100056D0B5420BD96B48006884420DD0694821
:104F20000068C06AA84208D84FF0010905E065484A
:104F30000068844201D14FF00109E76AE16AE06C40
:104F4000884200D1E562E564A06900F0004010B934
:104F5000C5F12000A06107EB8701624A02EB8101E5
:104F60006069884201D1012000E00020E0B1201DED
:104F7000FEF77EFF30B90120B840534909688143EC
:104F80005148016094F82C10012088404E4909686E
:104F900008434D490860E16A01EB8101514A02EB87
:104FA0008100211DFEF73EFFB9F1000F07D04FF041
:104FB000805042490860BFF34F8FBFF36F8F00BF2F
:104FC00001F04EF9BDE8F0874448006818B10120AF
:104FD000374908601DE00020354908603A480068FC
:104FE000B0FA80F0C0F11F0101EB81023D4B03EBF1
:104FF000820042685268426000F1080243689342AE
:1050000002D14268526842604268D2682D4B1A60F1
:1050100000BF704770B5054601F013F915B929486E
:10502000006800E028460446201DFEF721FF78B9FD
:10503000E06A00EB80002B4951F8200040B994F859
:105040002C10012088402049096881431E480160D6
:10505000A06A18B104F11800FEF70AFF211D1B48D1
:10506000FEF7E0FE01F0FCF81F48006828B101F0EF
:10507000E8F8FFF7DEFC01F0F3F81248006884421C
:1050800038D11948006840B14FF080500B49086092
:10509000BFF34F8FBFF36F8F2CE00C4800681349AC
:1050A0000968884224D100200649086022E00000F7
:1050B00074000020F80800207000002004ED00E0DB
:1050C000640000205000002068000020200900201B
:1050D000580000205400002080000020880000209C
:1050E0000C090020500600206C0000206000002009
:1050F000FFF76AFF70BD10B5014600200A46FE4C5E
:105100005369A34201D1012300E0002373B1FB4C9A
:10511000936AA34201D1012300E0002333B9936ACB
:105120000BB9012300E0002303B1012010BD70B5CD
:1051300005462C4674B3F248006884422AD001F038
:1051400080F82046FFF7D7FF10B3201DFEF790FE32
:1051500094F82C1001208840EA4909680843E9497D
:105160000860E16A01EB8101E74A02EB8100211D41
:10517000FEF758FEE249E06A0968C96A884207D327
:105180004FF08050E1490860BFF34F8FBFF36F8F3E
:1051900001F066F870BD2DE9F0410646002734465F
:1051A00000BF5021EFF3118081F31188BFF34F8FBF
:1051B000BFF36F8F00BF05462046FFF79CFF20B36B
:1051C000D3480068E0B9CE49E06A0968C96A8842F4
:1051D00000D30127201DFEF74BFE94F82C10012070
:1051E0008840C84909680843C6490860E16A01EB7C
:1051F0008101C54A02EB8100211DFEF713FE04E088
:1052000004F11801BD48FEF70DFE00BF85F31188BB
:1052100000BF3846BDE8F08170B523E0FFF7BCFD64
:10522000BC48006808B9012000E000200546FFF7EF
:10523000E8FCBDB901F005F8B648C068C468201D97
:10524000FEF716FEB4480068401EB3490860B34834
:105250000068401EB149086001F002F82046FFF7DF
:10526000FDFB00BFAD4800680028D7D170BD00BF6E
:10527000FFF7D2FFA44800680128F9D94FF0805009
:10528000A2490860BFF34F8FBFF36F8FF0E71CB5E3
:10529000A34800210B468222CDE90010A1A1A3481A
:1052A000FFF797FB0446012C02D100F0BCFE044638
:1052B000012C14D100BF502080F31188BFF34F8F11
:1052C000BFF36F8F00BF4FF0FF3099490860012096
:1052D0009849086000209849086000F094FF1CBDC0
:1052E00010B500BF502080F31188BFF34F8FBFF37C
:1052F0006F8F00BF00208F49086000F0A1FF10BD34
:105300008D490868704700218B4A106870478248B1
:1053100000687047014611B97948006800E0084606
:10532000024602F1340070470246002101E0521C9F
:10533000491C1078A528FAD0890888B270472DE951
:10534000F04107460C4690461E4617B96C48006867
:1053500000E038460546256005F134006060E86AE3
:105360002061286BE061686CA060207B032807D176
:10537000FFF712FDA86A08B102202073FFF741FC75
:10538000E86C60610020A061052E01D0267303E067
:105390003846FFF753FD2073B8F1000F04D0286B97
:1053A000FFF7C2FF208401E000202084BDE8F081E7
:1053B0002DE9F04707460C4690460026206848B382
:1053C000204641684968416000F1080142688A420C
:1053D00002D14168496841604168D1F80C9000BF32
:1053E000204641684968416000F1080142688A42EC
:1053F00002D14168496841604168CD6806EBC6004A
:1054000007EB8001434601222846FFF798FF761CF0
:105410004D45E5D13046BDE8F0872DE9F041054620
:105420008846164600242027FFF7B6FC3A48006855
:10543000804539D300BF7F1E07EB8702324B03EB59
:10544000820104EBC40205EB82000122FFF7B0FFEA
:105450000444002FEFD104EBC40105EB81000222CC
:1054600036490968FFF7A4FF044404EBC40105EBC7
:105470008100022232490968FFF79AFF044404EBD5
:10548000C40105EB810004222249FFF791FF044487
:1054900004EBC40105EB810003221749FFF788FFE5
:1054A00004440EB100203060FFF7ABFB2046BDE89E
:1054B000F08170B505460C46114801681831284640
:1054C000FEF7BCFC01212046FFF728FC70BD70B53B
:1054D00006460C46154644F00040094909688861B3
:1054E0000748016818313046FEF79CFC0121284628
:1054F000FFF714FC70BD000020090020F808002010
:1055000050000020680000205006002004ED00E05C
:10551000880000200C090020600000205C000020B2
:105520008400002049444C45000000006F520008F0
:10553000800000206C000020640000205400002047
:105540005800002070B506460D461446FE48016816
:1055500018313046FEF766FC0CB14FF0FF3521469E
:105560002846FFF7DBFB70BD70B50646F068C468DF
:1055700004F11800FEF77CFCF4480068A8B9201D6F
:10558000FEF776FC94F82C1001208840F049096859
:105590000843EF490860E16A01EB8101ED4A02EB43
:1055A0008100211DFEF73EFC04E004F11801EA48E9
:1055B000FEF738FCE449E06A0968C96A884204D900
:1055C00001250120E549086000E00025284670BD5E
:1055D0002DE9F04105460F4647F000402860EC6891
:1055E0002846FEF745FC201DFEF742FC94F82C10DF
:1055F00001208840D64909680843D5490860E16A16
:1056000001EB8101D34A02EB8100211DFEF70AFC68
:10561000CD49E06A0968C96A884204D90126012097
:10562000CE49086000E000263046BDE8F081CC4954
:1056300009680160CB4909684160704770B504464C
:105640000D4600F0FEFDC74802682868401C08B9F6
:10565000002619E0C24920680968884204D06068C1
:10566000904201D801260FE06068101A296888422C
:1056700009D228686168511A401A28602046FFF74D
:10568000D6FF002600E0012600F0EAFD304670BD9E
:105690000120B24908607047014611B10A46906C7A
:1056A00000E00020704708B1024691647047A649A7
:1056B00008687047AC49096809B9012005E0A349A9
:1056C000096809B9022000E00020704770B505465E
:1056D0002C46002D4BD09C49E06A0968C96A884273
:1056E00045D2A06900F0004028B997480068C06A18
:1056F000C0F12000A061E16A01EB8101954A02EB53
:1057000081016069884201D1012000E0002050B38E
:10571000201DFEF7ADFB78B9E06A00EB80008D49F3
:1057200051F8200040B994F82C1001208840884995
:10573000096881438648016083480068C06AE06266
:1057400094F82C1001208840814909680843804959
:105750000860E16A01EB81017E4A02EB8100211DB4
:10576000FEF760FB03E078480068C06AE06270BD45
:1057700070B505462C460026ADB3206D401E206551
:10578000E16CE06A88422ED0206D60BB201DFEF7E0
:105790006FFB78B9E06A00EB80006E4951F8200099
:1057A00040B994F82C100120884069490968814368
:1057B00067480160E06CE062E06AC0F12000A0612F
:1057C00094F82C1001208840614909680843604919
:1057D0000860E16A01EB81015E4A02EB8100211D54
:1057E000FEF720FB0126304670BD70B505460E461B
:1057F0003146284600F07AFF284600F09BFF044619
:1058000002E020202855641C0F2CFAD300202855D4
:10581000281970BD7FB505460020287053480068E0
:1058200003905249096801EBC101880000F0A9FD0D
:105830000446002C53D0002220460399FFF7EDFDCB
:1058400003900020029043E0029800EBC00004EBBC
:105850008000007B012806D0022806D0032806D04D
:10586000042808D105E0522607E0422605E0532629
:1058700003E0442601E0002600BF00BF029800EBD1
:10588000C00004EB800041682846FFF7AEFF0546E4
:10589000029800EBC00004EB80008068029901EBE5
:1058A000C10104EB8101098CCDE90010029800EBE5
:1058B000C00004EB800032462DA10369284600F0A9
:1058C000FFFD284600F036FF05440298401C029078
:1058D000DDE902018842B7D3204600F0B0FD7FBD6C
:1058E00019490968886918490968C96AC1F120011C
:1058F000154A1268916170471348006830B1124927
:10590000096801F15000096D491C01600E480068EA
:10591000704770B506460D4600F093FC0A480068D3
:10592000406D80B901200849096881F8580055B1D7
:1059300001212846FFF7F2F94FF080501049086026
:10594000BFF34F8F1EE01FE05000002088000020B2
:105950006800002050060020F80800207400002095
:1059600078000020640000206C000020600000200F
:105970000925630925750925750925750D0A000096
:1059800004ED00E0BFF36F8F00F06AFC00F059FCFB
:10599000C8480068446D4CB126B10020C54909686B
:1059A000486503E0601EC349096848650020C14995
:1059B000096881F8580000F053FC204670BD2DE9BD
:1059C000F0410746884614461D4600F03AFCB948A7
:1059D000006890F85800022818D0B649096801F10B
:1059E0005400496DB94301600120B249096881F84A
:1059F00058005DB101212846FFF790F94FF0805023
:105A0000AD490860BFF34F8FBFF36F8F00F028FCE4
:105A100000F017FC1CB1A7480068406D2060A54845
:105A2000006890F85800012801D1002608E0A1493B
:105A3000096801F15400496D21EA0801016001265D
:105A400000209C49096881F8580000F009FC3046A4
:105A5000BDE8F0812DE9F04781460D4616461F4608
:105A60004FF0010A4C4600F0ECFB0FB1606D38605E
:105A700094F85880022084F85800052E17D2DFE8E9
:105A800006F01503070B0D00606D284360650EE0FE
:105A9000606D401C60650AE0656508E0B8F1020FC2
:105AA00001D0656501E04FF0000A00E000BF00BFD3
:105AB000B8F1010F22D1201DFEF7DAF994F82C106D
:105AC000012088407D49096808437C490860E16AF3
:105AD00001EB81017A4A02EB8100211DFEF7A2F958
